:100000000CEF00F0EE6AEA50E262FCD7E950E162E0
:04001000F9D712000A
:1000180005EEFEF016EE00F003EC00F07EEF00F0C7
:10002800FE000001FF51006E016A00C0D9FF010EF9
:10003800D95CD8A00BD0D9063F0EE8CFFEF5050154
:1000480000F0FE2F24EF00F00400F1D7FEC000F00E
:10005800D8900032D8900030E8CFFEF5050100F0C6
:10006800FE2F33EF00F01200E16E040ED96E3E0E43
:10007800E8CFFEF5050100F0FE2F3FEF00F0040089
:10008800D92EF5D7E12EF1D71200E16E040ED96E04
:100098003E0EE8CFFEF5050100F0FE2F50EF00F010
:1000A800D92EF6D7E12EF2D71200FE00040ED96E33
:1000B8003E0EE8CFFEF5050100F0FE2F60EF00F0E0
:1000C8000400D92EF5D7FE0EE96E000EEA6EEE0694
:1000D800000EED5AEE50ED10D8B41200E7D7F36ECB
:1000E800040EE96EFA0EC0DF0400E92EFBD7F32EEA
:1000F800F7D71200F36AF46A00EC38F0946A828049
:10010800FA0E0001FE6FFF6BD1DF8290FA0E00013C
:08011800FE6FFF6BCBDFF3D794
:020000040030CA
:04000000FFF9FFF114
:02000600FEFFFB
:020000040000FA
:00000001FF
