:100000000CEF00F0EE6AEA50E262FCD7E950E162E0
:04001000F9D712000A
:1000180005EEF2F015EEF4F003EC00F012EF01F04B
:10002800400EAF6EAC84AC98AB8EAB88AB9A9D9803
:100038009D9AAC9CAB9CAC9AAC8A12009EB80ED030
:10004800ABA204D0AC9AAC8AAB98AB88ABA404D072
:10005800AECFF2F5AC9AAC8A0400F0D7AD6E1200C0
:100068009EBA0ED00400ABA204D0AC9AAC8AAB986E
:10007800AB88ABA4F5D7AECFF2F5AC9AAC8AF0D783
:10008800AE5012009EBA010C000CABA204D0AC9A80
:10009800AC8AAB98AB88ABA41200AECFF2F5AC9AA1
:1000A800AC8A1200ABA204D0AC9AAC8AAB98AB88ED
:1000B800ABA41200AECFF2F5AC9AAC8A1200D96E9E
:1000C800E16ED93A0F0ED9160A0ED95CD8B002D013
:1000D800300E01D0370ED926D950B0DFE150D96E95
:1000E8000F0ED9160A0ED95CD8B002D0300E01D046
:1000F800370ED926D950A2D7FD000001FE51DFDF07
:100108000001FD51DCD7000CD96EE16E640E016E62
:10011800D950D4EC01F00009640E016ED8B407D0B0
:10012800D950D4EC01F0300F89DF640E016ED9503C
:10013800D4EC01F0640DF350D95E0A0E016EE15063
:10014800D4EC01F00009D8A408D0640E016EE15087
:10015800D4EC01F00009D8B407D00A0E016ED950CA
:10016800D4EC01F0300F6ADF0A0E016ED950D4ECDE
:1001780001F00A0DF350D95ED950300F5FD7FE0059
:10018800FEC0F6FFFFC0F7FF050EF76403D00800B6
:10019800F55005D0F6CFE9FFF7CFEAFFEF50000999
:1001A800D8B41200FEC0F6FFFFC0F7FF050EF764D3
:1001B80003D00800F55005D0F6CFE9FFF7CFEAFFE6
:1001C800EF503CDFFEC0F6FFFFC0F7FF050EF764F7
:1001D80003D00800F55005D0F6CFE9FFF7CFEAFFC6
:1001E800EF500D0AD8A402D00A0E28DFFEC0F6FF91
:1001F800FFC0F7FF050EF76403D00800F55005D0DF
:10020800F6CFE9FFF7CFEAFFEF500A0AD8A402D0E9
:100218000D0E14DF0001FE4BFF2BB2D701DF0001EA
:10022800B40EFE6F060EFF6FABDF0001180EFE6FF7
:10023800060EFF6FA5DF00014E0EFE6F060EFF6F64
:100248009FDF0001760EFE6F060EFF6F99DF00013B
:10025800FD6B00014D0EFE6F010EFF6FAFEC01F05C
:100268000001000EFE6F060EFF6F8ADF080E000108
:10027800FD2708DF006E0004D8A41ED0F1DED96E79
:100288000001090EFE6F060EFF6F7ADF0E0E0001E9
:10029800FD27D950D3DE0001FD2B060EFE6F060E9A
:1002A800FF6F6EDF020E0001FD27BC0EFE6F020E0F
:1002B800FF6FAFEC01F0E9DE510E0001FD5DD8A043
:1002C800C8D7B60EFE6F060EFF6F5ADFC0D7FD0007
:1002D8000001FE51006E016A00C0D9FF010ED95C11
:1002E800D8A00CD0D906FD0EE8CFF3F5050100F033
:1002F80000F0F32F7BEF01F00400F0D7FDC0F3F519
:10030800050100F000F0F32F85EF01F01200E16E17
:10031800040ED96EFA0EE8CFF3F5050100F000F0EF
:10032800F32F92EF01F00400D92EF4D7E12EF0D785
:100338001200E16E040ED96EFA0EE8CFF3F505014E
:1003480000F000F0F32FA4EF01F0D92EF5D7E12E3D
:10035800F1D71200FE00040ED96EFA0EE8CFF3F5BD
:10036800050100F000F0F32FB5EF01F00400D92EDD
:10037800F4D7FE0EE96E000EEA6EEE06000EED5A98
:10038800EE50ED10D8B41200E6D7F36E040EE96E05
:10039800FA0EBDDF0400E92EFBD7F32EF7D71200C3
:1003A800006E046AD890FD0E01241BE3036AF00E68
:1003B800011403E1040E036E013A026AD890032A7D
:1003C8000136FDE301320150005CD8B0006E023600
:1003D800032EF8D704BE026C025004AE1200006C63
:1003E8001200013206E20132D8A0006AD890003229
:0803F800D8A0D89000C002F06B
:06040000006A0036EBD794
:100600005B616C6976655D20005B6B65792070725B
:1006100065737365643A200053657269616C207478
:1006200065737465722070726F6772616D20666F9A
:100630007220504943313846323532206279205396
:1006400068616E6520546F6C6D69650A0A004672B8
:100650006F6D3A20687474703A2F2F7777772E7702
:100660006F726B696E677465782E636F6D2F687437
:100670007069630A0A005374617274696E67207549
:10068000702073657269616C2040203139323030DE
:1006900020626175642C204E2C382C312C206E6F1A
:1006A00020666C6F7720636F6E74726F6C202E2ED5
:0806B0002E0A0A000A0A0A00E2
:020000040030CA
:04000000FFFAFCFE09
:02000600FBFFFE
:020000040000FA
:00000001FF
